:100000000C942A000C9447000C9447000C94470071
:100010000C9447000C9447000C9447000C94470044
:100020000C9447000C9447000C9447000C94470034
:100030000C9447000C941D030C9447000C9447004B
:100040000C9447000C9447000C9447000C94470014
:100050000C94470011241FBECFE5D8E0DEBFCDBF12
:1000600010E0A0E6B0E0EAE6F1E102C005900D92F2
:10007000AE3EB107D9F723E0AEEEB0E001C01D926D
:10008000A83EB207E1F70E9469010C94B3080C94F2
:100090000000883000F5662381F0613009F088C0E7
:1000A0004BB321E030E0B90102C0660F771F8A959B
:1000B000E2F7CB01842B8BBB08954BB321E030E0FA
:1000C000B90102C0660F771F8A95E2F7CB018095D0
:1000D00084238BBB089598EF980F983008F566231A
:1000E00081F0613009F064C048B321E030E0B9012B
:1000F00002C0660F771F9A95E2F7CB01842B88BB6D
:10010000089548B3885021E030E0B90102C0660F7D
:10011000771F8A95E2F7CB018095842388BB0895E9
:1001200090EF980F983008F5662381F0613009F060
:100130003FC045B321E030E0B90102C0660F771F30
:100140009A95E2F7CB01842B85BB089545B3805186
:1001500021E030E0B90102C0660F771F8A95E2F70F
:10016000CB018095842385BB089598EE980F983035
:10017000F8F4662379F06130D9F442B321E030E03D
:10018000B90102C0660F771F9A95E2F7CB01842B65
:1001900082BB089542B3885121E030E0B90102C02A
:1001A000660F771F8A95E2F7CB018095842382BB87
:1001B0000895883000F5662381F0613009F088C029
:1001C0004AB321E030E0B90102C0660F771F8A957B
:1001D000E2F7CB01842B8ABB08954AB321E030E0DB
:1001E000B90102C0660F771F8A95E2F7CB018095AF
:1001F00084238ABB089598EF980F983008F56623FA
:1002000081F0613009F064C047B321E030E0B9010A
:1002100002C0660F771F9A95E2F7CB01842B87BB4C
:10022000089547B3885021E030E0B90102C0660F5D
:10023000771F8A95E2F7CB018095842387BB0895C9
:1002400090EF980F983008F5662381F0613009F03F
:100250003FC044B321E030E0B90102C0660F771F10
:100260009A95E2F7CB01842B84BB089544B3805167
:1002700021E030E0B90102C0660F771F8A95E2F7EE
:10028000CB018095842384BB089598EE980F983015
:10029000F8F4662379F06130D9F441B321E030E01D
:1002A000B90102C0660F771F9A95E2F7CB01842B44
:1002B00081BB089541B3885121E030E0B90102C00B
:1002C000660F771F8A95E2F7CB018095842381BB67
:1002D00008950E948F0248EC50E060E070E082E3F5
:1002E0000E94B102F89447E654E060E875E280E0CD
:1002F00090E00E94DC027894A12CB12CC12CD12C6E
:10030000E12CF12C00E010E020E630E04BE650E07C
:100310006FE670E080E00E94580864E770E087E7CD
:1003200090E00E9416078130C1F7BC9A0E949F0797
:100330002FE33DE043E0215030404040E1F700C072
:100340000000FC018081918183359105C1F03CF46E
:100350008134910569F18434910509F1E7CF87353E
:10036000910521F08835910599F0E0CF61E081E0B9
:100370000E94E10162E081E00E94E101D7CF61E0EB
:1003800082E00E94E10162E082E00E94E101CECFC2
:1003900081E00E94700282E00E947002C7CF61E09B
:1003A00081E00E94E10162E082E00E94E101BECFB3
:1003B00061E082E00E94E10162E081E00E94E101EF
:1003C000B5CFCF93C82F613021F0623009F444C01B
:1003D00085C061E070E08AE190E00E94D90061E0B0
:1003E00070E08BE190E00E94D900C13019F0C2307A
:1003F000D1F074C060E070E08AE190E00E944900B2
:1004000060E070E08BE190E00E94490061E070E004
:100410008AE190E00E94490060E070E08BE190E0AA
:100420000E9449005BC060E070E08AE190E00E94B9
:10043000490060E070E08BE190E00E94490060E0DC
:1004400070E08AE190E00E94490061E070E08BE199
:1004500090E00E94490042C061E070E08EE190E0CF
:100460000E94D90061E070E08FE190E00E94D90025
:10047000C13019F0C230D1F031C060E070E08EE1DF
:1004800090E00E94490060E070E08FE190E00E94FF
:10049000490061E070E08EE190E00E94490060E078
:1004A00070E08FE190E00E94490018C060E070E0C9
:1004B0008EE190E00E94490060E070E08FE190E002
:1004C0000E94490060E070E08EE190E00E944900E7
:1004D00061E070E08FE190E00E944900CF910895C3
:1004E000813019F0823071F0089560E070E08AE1A7
:1004F00090E00E94490060E070E08BE190E00E9493
:100500004900089560E070E08EE190E00E944900AB
:1005100060E070E08FE190E00E94490008958FB59F
:1005200082608FBD8FB58E7F8FBD8EB588608EBD8A
:100530008EB580618EBD8FB580648FBD8FB58068AC
:100540008FBD8FB580618FBD8FB580628FBD8EB539
:1005500081608EBD8EB58D7F8EBD8EB58B7F8EBD3D
:100560000895CF93C82F9A01AB01220F331F441F68
:10057000551F60E074E284EF90E00E948208422FF1
:10058000532F3695279536952795ABE7B4E10E9412
:10059000A4089695879524E630E02C1B3109829FAC
:1005A000B001839F700D929F700D112479BD68BDBD
:1005B00057BD46BDCF910895CF93DF93EA01DC018B
:1005C000CB01880F991FAA1FBB1F880F991FAA1F55
:1005D000BB1F9C01AD01220F331F441F551F220F6B
:1005E000331F441F551F60E074E284EF90E00E94C7
:1005F0008208215031098AB188618AB9209729F08F
:10060000D093EF00C093EE00579A30BD29B9DF9127
:10061000CF9108955D9BFECF8CB90895CF93DF9362
:10062000EC018881882331F021960E940A03899188
:100630008111FBCFDF91CF9108951F920F920FB6DA
:100640000F9211242F933F934F935F936F937F9358
:100650008F939F93AF93BF93EF93FF938CB1E091F0
:10066000EE00F091EF000995FF91EF91BF91AF91EE
:100670009F918F917F916F915F914F913F912F91BA
:100680000F900FBE0F901F9018958F929F92AF9270
:10069000BF92CF92DF92FF920F931F93CF93DF937E
:1006A0000091F900002309F4F6C0F090F700509192
:1006B000F8006FEF600F70E06E5F7F4F81E090E0B9
:1006C00010E0DD24D394A02FB0E0ED01C750DF4F40
:1006D0009D0129503F4F4901B12CC12C9C01215053
:1006E0003109F901E650FF4F40814F3469F4FC01B4
:1006F000E650FF4F20812B3409F0C4C028812D30F3
:1007000009F0C0C05D2DBEC0F901E650FF4F408129
:100710004B3209F059C0FC01E650FF4F20812934CB
:1007200009F045C0D4012C912B3409F0ABC0E12F66
:10073000F0E09F0126503F4FD9012C912A3349F018
:100740001F5FE12FF0E0DF01A650BF4F2C912A334D
:10075000B9F79F012F5F3F4FA90146505F4FDA0164
:100760004C914D30D9F04B2D5C2DA12CD901A650C8
:10077000BF4F2C91DA01A650BF4F2C93A3944A2D62
:1007800050E09A012E0F3F1F2F5F3F4FD901A65017
:10079000BF4FFC90BDE0FB12E9CF02C04B2D5C2D9A
:1007A000FA01E650FF4F1082FD2C5D2D6BC0FC015D
:1007B000E650FF4F2081233409F064C028812D309A
:1007C00009F060C05D2D5EC0F901E650FF4F408129
:1007D000453499F4FC01E650FF4F2081223509F0A1
:1007E00051C028812D3009F04DC05093F800F0928F
:1007F000F7001092F90080E05EC0F901E650FF4F6B
:1008000040814E3409F5FC01E650FF4F20812E3423
:10081000C9F528812D30B1F5212F30E0F901E650DE
:10082000FF4F40814C3249F01F5F212F30E0F9012A
:10083000E650FF4F40814C32B9F71F5FF901E65097
:10084000FF4F10825D2D1EC0F901E650FF4F408121
:100850004E33B9F0F901E650FF4F2081233591F472
:10086000FC01E650FF4F2081253461F4FC01E65085
:10087000FF4F20812E3431F428812D3019F45D2D65
:1008800001C05D2D01968617970709F027CF509379
:10089000F800F092F7008091F800882359F081E089
:1008A000800F8093F900E02FF0E0E650FF4F1082B8
:1008B00081E001C082E0DF91CF911F910F91FF9005
:1008C000DF90CF90BF90AF909F908F900895E09170
:1008D000F90091E09E0F9093F900F0E0E650FF4F91
:1008E00080839A3F11F41092F90008952091F90045
:1008F000222371F0215030E02F5F3F4F80E090E0E5
:10090000FC01E650FF4F1082019682179307C1F752
:100910001092F9001092F8001092F70008950F93CA
:100920001F93CF93DF93CDB7DEB72B970FB6F89415
:10093000DEBF0FBECDBF8C018BE0E9E8F0E0DE0149
:10094000119601900D928A95E1F78091F600811140
:1009500045C081E08093F6000E947604298122231D
:10096000A1F080E090E0E0E0EF5FDC01AC50BE4F32
:100970002C938E2F90E0A1E0B0E0AC0FBD1FA80F2C
:10098000B91F2C912111F0CF01C0E0E0D8019C915A
:10099000992361F0119621E02E0FF0E0EC50FE4F0C
:1009A00090839D91E22F9111F6CF01C02E2FE22F5F
:1009B000F0E0EC50FE4F8DE08083E1E0E20FF0E0EC
:1009C000EC50FE4F8AE080832E5FE22FF0E0EC5087
:1009D000FE4F108284EF91E00E940E030E944503B7
:1009E0008823C1F00E9445038230A1F08091F80075
:1009F000882379F00E9476041092F600BFE12FEB75
:100A000082E0B15020408040E1F700C0000081E06A
:100A100001C082E02B960FB6F894DEBF0FBECDBFAB
:100A2000DF91CF911F910F9108950F931F93CF9353
:100A3000DF93CDB7DEB760970FB6F894DEBF0FBE79
:100A4000CDBF8C0180E1E4E9F0E0DE011196019078
:100A50000D928A95E1F78091F500811145C081E002
:100A60008093F5000E94760429812223A1F080E082
:100A700090E0E0E0EF5FDC01AC50BE4F2C938E2F96
:100A800090E0A1E0B0E0AC0FBD1FA80FB91F2C9102
:100A90002111F0CF01C0E0E0D8019C91992361F0D1
:100AA000119621E02E0FF0E0EC50FE4F90839D91C7
:100AB000E22F9111F6CF01C02E2FE22FF0E0EC5083
:100AC000FE4F8DE08083E1E0E20FF0E0EC50FE4F5E
:100AD0008AE080832E5FE22FF0E0EC50FE4F108220
:100AE00084EF91E00E940E030E9445038823C1F029
:100AF0000E9445038230A1F08091F800882379F0AC
:100B00000E9476041092F500BFE12FEB82E0B15015
:100B100020408040E1F700C0000081E001C082E099
:100B200060960FB6F894DEBF0FBECDBFDF91CF91B8
:100B30001F910F9108951F93CF93DF93CDB7DEB729
:100B40002B970FB6F894DEBF0FBECDBF182F8BE0EA
:100B5000E4EAF0E0DE01119601900D928A95E1F74A
:100B60008091F40081113AC081E08093F4000E94EA
:100B7000760429812223A1F080E090E0E0E0EF5F9D
:100B8000DC01AC50BE4F2C938E2F90E0A1E0B0E082
:100B9000AC0FBD1FA80FB91F2C912111F0CF03C0BE
:100BA00080E090E0E0E0DC01AC50BE4F1C93A1E09F
:100BB000AE0FB0E0AC50BE4F8DE08C93A2E0AE0F14
:100BC000B0E0AC50BE4F8AE08C93ED5FF0E0EC50AB
:100BD000FE4F108284EF91E00E940E030E944503B5
:100BE0008823C1F00E9445038230A1F08091F80073
:100BF000882379F00E9476041092F4002FE18FEBA5
:100C000092E0215080409040E1F700C0000081E078
:100C100001C082E02B960FB6F894DEBF0FBECDBFA9
:100C2000DF91CF911F910895AF92BF92CF92DF9243
:100C3000EF92FF920F931F93CF93DF93CDB7DEB761
:100C40002B970FB6F894DEBF0FBECDBF5C016B01D2
:100C50007A0189018BE0EFEAF0E0DE011196019064
:100C60000D928A95E1F78091F3008111A1C081E096
:100C70008093F3000E9476049E012F5F3F4FAE01E8
:100C8000445F5F4FF901DF01A21BB30B8191AC50B0
:100C9000BE4F8C93E417F507B1F7D5018C918823EB
:100CA00089F0BFEFAB1ABB0AEAE0A1E0AE0FF0E0BB
:100CB000EC50FE4F8083F50181915F01EA2F811195
:100CC000F4CF01C0AAE0EA2FF0E0EC50FE4F82E240
:100CD0008083E1E0EA0FF0E0EC50FE4F9CE290836D
:100CE000E3E0EA0FAE5FB0E0AC50BE4F8C93D601AC
:100CF0008C91882361F0119691E09E0FF0E0EC500A
:100D0000FE4F80838D91E92F8111F6CF01C09E2F78
:100D1000E92FF0E0EC50FE4F82E28083E2E0E90F41
:100D2000A1E0A90FB0E0AC50BE4F8CE28C93D7018C
:100D30008C91882361F0119691E09E0FF0E0EC50C9
:100D4000FE4F80838D91E92F8111F6CF01C09E2F38
:100D5000E1E0E90FA92FB0E0AC50BE4F8CE28C93DC
:100D6000D8018C91882361F0119691E09E0FF0E0FC
:100D7000EC50FE4F80838D91E92F8111F6CF01C099
:100D80009E2FE92FF0E0EC50FE4F8DE08083E1E0F4
:100D9000E90FF0E0EC50FE4F8AE080839E5FE92F80
:100DA000F0E0EC50FE4F108284EF91E00E940E03C1
:100DB0000E9445038823C1F00E9445038230A1F0C0
:100DC0008091F800882379F00E9476041092F30055
:100DD000BFE1EFEBF2E0B150E040F040E1F700C0DE
:100DE000000081E001C082E02B960FB6F894DEBFD0
:100DF0000FBECDBFDF91CF911F910F91FF90EF906C
:100E0000DF90CF90BF90AF900895CF93DF93EC0128
:100E100085EC90E00E948F048130D1F7CE010E94D2
:100E200015058130D9F7DF91CF910895EF92FF92A8
:100E30000F931F93CF93DF93CDB7DEB72E970FB6E7
:100E4000F894DEBF0FBECDBF8C017B018EE0EDEDCF
:100E5000F0E0DE01119601900D928A95E1F7809104
:100E6000F200811140C081E08093F2000E9476047C
:100E70009E012F5F3F4FAE01415F5F4FF901DF01E0
:100E8000A21BB30B8191AC50BE4F8C93E417F507B6
:100E9000B1F7F7018081882371F0D7011196EDE059
:100EA00091E09E0FF0E0EC50FE4F80838D91E92F92
:100EB0008111F6CF01C09DE0E92FF0E0EC50FE4F2C
:100EC0008DE08083E1E0E90FF0E0EC50FE4F8AE036
:100ED00080839E5FE92FF0E0EC50FE4F108284EF9C
:100EE00091E00E940E030E9445038823D9F00E94DE
:100EF00045038230B9F08091F800882391F0C80151
:100F00000E940E030E9476041092F200FFE12FEB84
:100F100082E0F15020408040E1F700C0000081E015
:100F200001C082E02E960FB6F894DEBF0FBECDBF93
:100F3000DF91CF911F910F91FF90EF9008958091D5
:100F4000F100811105C081E08093F1000E947604D8
:100F50000E9445038823D9F10E9445038230D1F1D4
:100F60008091F8008823C9F18091F7008823C1F1AE
:100F70008091FA008823A9F080E090E020E0FC0155
:100F8000E650FF4F3081FC01E251FD4F30832F5F6F
:100F9000822F90E0FC01E650FF4F30813111EFCFFE
:100FA00002C080E090E0FC01E251FD4F10820E94FF
:100FB00076041092F1002FE18FEB92E021508040F7
:100FC0009040E1F700C000008EEE92E0089580E0CE
:100FD00090E0089582E090E0089582E090E0089526
:100FE00082E090E00895CF93DF9300D01F92CDB7B9
:100FF000DEB781E494E59A8389831B828091F000B7
:10100000811134C081E08093F0000E947604298130
:101010002223A1F080E090E0E0E0EF5FDC01AC5043
:10102000BE4F2C938E2F90E0A1E0B0E0AC0FBD1F1F
:10103000A80FB91F2C912111F0CF03C080E090E0E0
:10104000E0E0DC01AC50BE4F2DE02C93A1E0AE0FF0
:10105000B0E0AC50BE4F8AE08C93EE5FF0E0EC5015
:10106000FE4F108284EF91E00E940E030E94450320
:101070008823C1F00E9445038230A1F08091F800DE
:10108000882379F00E9476041092F0002FE18FEB14
:1010900092E0215080409040E1F700C0000081E0E4
:1010A00001C082E00F900F900F90DF91CF910895D3
:1010B000EF92FF920F931F93CF93DF937B018A01EF
:1010C000E901811118C00E94F3078130E1F782E342
:1010D0000E949B058130D9F7C7010E940507813026
:1010E000D9F72BEE30E045EC50E0BE01C8010E947C
:1010F00014068130B1F7DF91CF911F910F91FF90CE
:10110000EF900895A1E21A2EAA1BBB1BFD010DC092
:10111000AA1FBB1FEE1FFF1FA217B307E407F507A7
:1011200020F0A21BB30BE40BF50B661F771F881F83
:10113000991F1A9469F760957095809590959B0119
:10114000AC01BD01CF010895A29FB001B39FC001C2
:10115000A39F700D811D1124911DB29F700D811DE3
:0A1160001124911D0895F894FFCFAB
:10116A0031323334353637383930006179610034F9
:10117A0034343400313700576966692044656D6F2D
:10118A0020537461727465640041542B4349504D75
:10119A0055583D0041542B434950534552564552E8
:1011AA003D312C0041542B43574D4F44453D00419E
:1011BA00542B43575341503D220041542B43574A25
:1011CA0041503D2200310041542B43495053544170
:1011DA0052543D302C22544350222C220041542B8D
:0E11EA0043495053454E443D302C0033000025
:00000001FF
