:100000000C942A000C943F000C943F000C943F0089
:100010000C943F000C943F000C943F000C943F0064
:100020000C943F000C943F000C943F000C943F0054
:100030000C943F000C943F000C943F000C943F0044
:100040000C943F000C943F000C943F000C943F0034
:100050000C943F0011241FBECFE5D8E0DEBFCDBF1A
:1000600010E0A0E6B0E0E0E6F5E002C005900D92F9
:10007000A836B107D9F70E94A5020C94AE020C94E1
:100080000000883000F5662381F0613009F088C0F7
:100090004BB321E030E0B90102C0660F771F8A95AB
:1000A000E2F7CB01842B8BBB08954BB321E030E00A
:1000B000B90102C0660F771F8A95E2F7CB018095E0
:1000C00084238BBB089598EF980F983008F566232A
:1000D00081F0613009F064C048B321E030E0B9013B
:1000E00002C0660F771F9A95E2F7CB01842B88BB7D
:1000F000089548B3885021E030E0B90102C0660F8E
:10010000771F8A95E2F7CB018095842388BB0895F9
:1001100090EF980F983008F5662381F0613009F070
:100120003FC045B321E030E0B90102C0660F771F40
:100130009A95E2F7CB01842B85BB089545B3805196
:1001400021E030E0B90102C0660F771F8A95E2F71F
:10015000CB018095842385BB089598EE980F983045
:10016000F8F4662379F06130D9F442B321E030E04D
:10017000B90102C0660F771F9A95E2F7CB01842B75
:1001800082BB089542B3885121E030E0B90102C03A
:10019000660F771F8A95E2F7CB018095842382BB97
:1001A0000895883000F5662381F0613009F088C039
:1001B0004AB321E030E0B90102C0660F771F8A958B
:1001C000E2F7CB01842B8ABB08954AB321E030E0EB
:1001D000B90102C0660F771F8A95E2F7CB018095BF
:1001E00084238ABB089598EF980F983008F566230A
:1001F00081F0613009F064C047B321E030E0B9011B
:1002000002C0660F771F9A95E2F7CB01842B87BB5C
:10021000089547B3885021E030E0B90102C0660F6D
:10022000771F8A95E2F7CB018095842387BB0895D9
:1002300090EF980F983008F5662381F0613009F04F
:100240003FC044B321E030E0B90102C0660F771F20
:100250009A95E2F7CB01842B84BB089544B3805177
:1002600021E030E0B90102C0660F771F8A95E2F7FE
:10027000CB018095842384BB089598EE980F983025
:10028000F8F4662379F06130D9F441B321E030E02D
:10029000B90102C0660F771F9A95E2F7CB01842B54
:1002A00081BB089541B3885121E030E0B90102C01B
:1002B000660F771F8A95E2F7CB018095842381BB77
:1002C0000895CF93C82F60E081E00E94410060E074
:1002D00082E00E9441008FE99FE00197F1F700C0A2
:1002E000000061E083E00E9441008FE99FE00197F8
:1002F000F1F700C00000C4FB662760F984E00E94AB
:100300004100C5FB662760F985E00E944100C6FBFD
:10031000662760F986E00E9441006C2F661F662701
:10032000661F87E00E9441008FE99FE00197F1F787
:1003300000C0000060E083E00E9441008FE99FE080
:100340000197F1F700C0000061E083E00E944100E6
:100350008FE99FE00197F1F700C000006C2F6170FA
:1003600084E00E944100C1FB662760F985E00E949D
:100370004100C2FB662760F986E00E944100C3FB92
:10038000662760F987E00E9441008FE99FE00197AE
:10039000F1F700C0000060E083E00E9441008FE9B7
:1003A0009FE00197F1F700C00000CF91089561E050
:1003B00081E00E94D10061E082E00E94D10061E012
:1003C00083E00E94D10061E084E00E94D10061E0FE
:1003D00085E00E94D10061E086E00E94D10061E0EA
:1003E00087E00E94D10088E20E9461018CE00E94B7
:1003F000610181E00E9461010895CF93C82F61E0FF
:1004000081E00E94410060E082E00E9441008FE9AB
:100410009FE00197F1F700C0000061E083E00E94D7
:1004200041008FE99FE00197F1F700C00000C4FB95
:10043000662760F984E00E944100C5FB662760F9E9
:1004400085E00E944100C6FB662760F986E00E94B5
:1004500041006C2F661F6627661F87E00E944100DF
:100460008FE99FE00197F1F700C0000060E083E0B2
:100470000E9441008FE99FE00197F1F700C0000062
:1004800061E083E00E9441008FE99FE00197F1F76E
:1004900000C000006C2F617084E00E944100C1FB2D
:1004A000662760F985E00E944100C2FB662760F97B
:1004B00086E00E944100C3FB662760F987E00E9446
:1004C00041008FE99FE00197F1F700C0000060E074
:1004D00083E00E9441008FE99FE00197F1F700C09F
:1004E0000000CF9108950F931F93CF93FC0180815B
:1004F000882359F08F01C0E00E94FD01CF5FF80111
:10050000EC0FF11D80818111F7CFCF911F910F91D9
:100510000895813019F0823021F006C080E8860FFE
:1005200004C080EC860F01C080E80E94610108953C
:10053000CF93DF93EC01862F642F0E948902CE01B6
:100540000E947302DF91CF9108950E94D70145E088
:1005500061E080E690E00E949802FFCFF894FFCF20
:08056000617961206D65000066
:00000001FF
