:100000000C942A000C943C000C943C000C946E015F
:100010000C943C000C943C000C943C000C943C0070
:100020000C943C000C943C000C94DD010C943C00BE
:100030000C943C000C943C000C943C000C943C0050
:100040000C943C000C943C000C943C000C943C0040
:100050000C943C0011241FBECFE5D8E0DEBFCDBF1D
:1000600020E0A0E6B0E001C01D92A236B207E1F7A1
:100070000E947F010C94EE010C940000883000F582
:10008000662381F0613009F088C04BB321E030E095
:10009000B90102C0660F771F8A95E2F7CB01842B66
:1000A0008BBB08954BB321E030E0B90102C0660F6D
:1000B000771F8A95E2F7CB01809584238BBB089547
:1000C00098EF980F983008F5662381F0613009F0B9
:1000D00064C048B321E030E0B90102C0660F771F69
:1000E0009A95E2F7CB01842B88BB089548B38850DA
:1000F00021E030E0B90102C0660F771F8A95E2F770
:10010000CB018095842388BB089590EF980F993098
:1001100008F5662381F0613009F03FC045B321E066
:1001200030E0B90102C0660F771F9A95E2F7CB0164
:10013000842B85BB089545B3805121E030E0B9019F
:1001400002C0660F771F8A95E2F7CB018095842362
:1001500085BB089597EE980F9730F8F4662379F0F1
:100160006130D9F442B321E030E0B90102C0660F3A
:10017000771F9A95E2F7CB01842B82BB089542B397
:10018000895121E030E0B90102C0660F771F8A95DE
:10019000E2F7CB018095842382BB0895883000F577
:1001A000662381F0613009F088C04AB321E030E075
:1001B000B90102C0660F771F8A95E2F7CB01842B45
:1001C0008ABB08954AB321E030E0B90102C0660F4E
:1001D000771F8A95E2F7CB01809584238ABB089527
:1001E00098EF980F983008F5662381F0613009F098
:1001F00064C047B321E030E0B90102C0660F771F49
:100200009A95E2F7CB01842B87BB089547B38850BA
:1002100021E030E0B90102C0660F771F8A95E2F74E
:10022000CB018095842387BB089590EF980F993078
:1002300008F5662381F0613009F03FC044B321E046
:1002400030E0B90102C0660F771F9A95E2F7CB0143
:10025000842B84BB089544B3805121E030E0B90180
:1002600002C0660F771F8A95E2F7CB018095842341
:1002700084BB089597EE980F9730F8F4662379F0D1
:100280006130D9F441B321E030E0B90102C0660F1A
:10029000771F9A95E2F7CB01842B81BB089541B378
:1002A000895121E030E0B90102C0660F771F8A95BD
:1002B000E2F7CB018095842381BB089560E08AE05A
:1002C0000E94CE0061E08AE00E943E008BB780620F
:1002D0008BBF84B7806484BF789408951F920F9277
:1002E0000FB60F9211248F93809160008F5F8093DF
:1002F00060008F910F900FBE0F901F90189561E0D6
:100300008CE00E94CE0061E08DE00E94CE0061E0B2
:100310008EE00E94CE008AEF0E94D3010E945E010F
:1003200061E08CE00E943E00809161008111FCCF71
:100330001092610060E08CE00E943E0061E08EE07F
:100340000E943E00809161008111FCCF10926100FB
:1003500060E08EE00E943E0061E08DE00E943E0081
:10036000809161008111FCCF1092610060E08DE00E
:100370000E943E0080916000813091F661E08EE045
:100380000E943E0060E08DE00E943E0060E08CE054
:100390000E943E00809161008111FCCF10926100AB
:1003A00010926000BDCF99B7926099BF93B79B68D8
:1003B00093BF12BE8CBF789408951F920F920FB610
:1003C0000F9211248F93809161008F5F8093610061
:1003D0008F910F900FBE0F901F901895F894FFCF3C
:00000001FF
