S0130000556172745F6472697665722E737265638A
S11300000C942A000C9434000C9434000C943400A6
S11300100C9434000C9434000C9434000C9434008C
S11300200C9434000C9434000C9434000C9434007C
S11300300C9434000C9434000C9434000C9434006C
S11300400C9434000C9434000C9434000C9434005C
S11300500C94340011241FBECFE5D8E0DEBFCDBF21
S11300600E94AD010C94FE010C940000883000F550
S1130070662381F0613009F088C04BB321E030E0A1
S1130080B90102C0660F771F8A95E2F7CB01842B72
S11300908BBB08954BB321E030E0B90102C0660F79
S11300A0771F8A95E2F7CB01809584238BBB089553
S11300B098EF980F983008F5662381F0613009F0C5
S11300C064C048B321E030E0B90102C0660F771F75
S11300D09A95E2F7CB01842B88BB089548B38850E6
S11300E021E030E0B90102C0660F771F8A95E2F77C
S11300F0CB018095842388BB089590EF980F9830A6
S113010008F5662381F0613009F03FC045B321E072
S113011030E0B90102C0660F771F9A95E2F7CB0170
S1130120842B85BB089545B3805121E030E0B901AB
S113013002C0660F771F8A95E2F7CB01809584236E
S113014085BB089598EE980F9830F8F4662379F0FB
S11301506130D9F442B321E030E0B90102C0660F46
S1130160771F9A95E2F7CB01842B82BB089542B3A3
S1130170885121E030E0B90102C0660F771F8A95EB
S1130180E2F7CB018095842382BB0895883000F583
S1130190662381F0613009F088C04AB321E030E081
S11301A0B90102C0660F771F8A95E2F7CB01842B51
S11301B08ABB08954AB321E030E0B90102C0660F5A
S11301C0771F8A95E2F7CB01809584238ABB089533
S11301D098EF980F983008F5662381F0613009F0A4
S11301E064C047B321E030E0B90102C0660F771F55
S11301F09A95E2F7CB01842B87BB089547B38850C7
S113020021E030E0B90102C0660F771F8A95E2F75A
S1130210CB018095842387BB089590EF980F983085
S113022008F5662381F0613009F03FC044B321E052
S113023030E0B90102C0660F771F9A95E2F7CB014F
S1130240842B84BB089544B3805121E030E0B9018C
S113025002C0660F771F8A95E2F7CB01809584234D
S113026084BB089598EE980F9830F8F4662379F0DB
S11302706130D9F441B321E030E0B90102C0660F26
S1130280771F9A95E2F7CB01842B81BB089541B384
S1130290885121E030E0B90102C0660F771F8A95CA
S11302A0E2F7CB018095842381BB0895883068F4FC
S11302B04BB321E030E0B90102C0660F771F8A9585
S11302C0E2F7CB0184278BBB089598EF980F983001
S11302D068F448B321E030E0B90102C0660F771F2B
S11302E09A95E2F7CB01842788BB089590EF980F85
S11302F0983068F445B321E030E0B90102C0660FDC
S1130300771F9A95E2F7CB01842785BB089598EE71
S1130310980F983060F440B321E030E0B90102C096
S1130320660F771F9A95E2F7CB01842780BB089567
S113033061E00E94C6000895613041F018F0623017
S113034049F0089560E00E943600089561E00E943B
S1130350360008950E94560108950E94EF018CE032
S11303600E9498018DE00E9498018EE00E949801FD
S11303708FE00E9498010E94FA01823009F128F46A
S1130380882341F08130B9F0F6CF8330F1F0843026
S113039009F1F1CF60E08CE00E949C0160E08DE007
S11303A00E949C0160E08EE00E949C0160E08FE06E
S11303B00E949C01E0CF61E08CE00E949C01DBCFB5
S11303C061E08DE00E949C01D6CF61E08EE00E9446
S11303D09C01D1CF61E08FE00E949C01CCCF80B51D
S11303E0866880BD599A8AB188618AB910BC8FEC3D
S11303F089B908955F9BFECF8CB10895F894FFCF1F
S9030000FC
