S01200004C43445F6472697665722E7372656354
S11300000C942A000C9447000C9447000C9447006D
S11300100C9447000C9447000C9447000C94470040
S11300200C9447000C9447000C9447000C94470030
S11300300C9447000C9447000C9447000C94470020
S11300400C9447000C9447000C9447000C94470010
S11300500C94470011241FBECFE5D8E0DEBFCDBF0E
S113006011E0A0E6B0E0E0ECF9E002C005900D92EA
S1130070A435B107D9F721E0A4E5B1E001C01D9290
S1130080A635B207E1F70E940F040C94DE040C9429
S113009000000E94EB0260E084E10E94E50160E060
S11300A08AE00E94E50108950F93CF93DF93CDB7C3
S11300B0DEB728970FB6F894DEBF0FBECDBFFE01A2
S11300C0319698E0DF011D929A95E9F79AE09A83B8
S11300D091E19D839EE09E83062F282F40E060E0FF
S11300E0CF010E94DC0328960FB6F894DEBF0FBE42
S11300F0CDBFDF91CF910F9108950F93CF93DF93ED
S1130100CDB7DEB728970FB6F894DEBF0FBECDBFCC
S1130110FE01319698E0DF011D929A95E9F79AE085
S11301209A839EE09D8391E19E83062F282F41E0D0
S113013061E0CF010E94DC0328960FB6F894DEBF7D
S11301400FBECDBFDF91CF910F910895CF93DF9371
S1130150EB0141E062E00E94B0032FEF87EA91E6F1
S1130160215080409040E1F700C000000E949D03B0
S113017040E061E0CE010E94B00340E062E080E62E
S113018090E00E94B00349E062E086E690E00E94BD
S1130190B003DF91CF910895CF93C82F84E10E94DB
S11301A0A401811105C08AE00E94A4018823B1F34F
S11301B08C2F0E94A4018823D9F00E949D0342E061
S11301C062E08BE690E00E94B0036CE082E00E9463
S11301D054002FEF83ED90E3215080409040E1F7ED
S11301E000C00000809155018F5F809355011AC0B3
S11301F00E949D0342E062E084E790E00E94B00325
S11302006CE082E00E947D002FEF83ED90E32150AB
S113021080409040E1F700C00000809154018F5F5E
S113022080935401CF910895883000F5662381F0BE
S1130230613009F088C04BB321E030E0B90102C05D
S1130240660F771F8A95E2F7CB01842B8BBB089549
S11302504BB321E030E0B90102C0660F771F8A95E5
S1130260E2F7CB01809584238BBB089598EF980F18
S1130270983008F5662381F0613009F064C048B312
S113028021E030E0B90102C0660F771F9A95E2F7CA
S1130290CB01842B88BB089548B3885021E030E01B
S11302A0B90102C0660F771F8A95E2F7CB018095EA
S11302B0842388BB089590EF980F983008F566233F
S11302C081F0613009F03FC045B321E030E0B9016D
S11302D002C0660F771F9A95E2F7CB01842B85BB8A
S11302E0089545B3805121E030E0B90102C0660FA2
S11302F0771F8A95E2F7CB018095842385BB089507
S113030098EE980F9830F8F4662379F06130D9F4B8
S113031042B321E030E0B90102C0660F771F9A951D
S1130320E2F7CB01842B82BB089542B3885121E0CC
S113033030E0B90102C0660F771F8A95E2F7CB015E
S11303408095842382BB0895982F883060F449B344
S113035021E030E0B90102C0660F771F8A95E2F709
S1130360CB018423089588EF890F883060F446B365
S113037021E030E0B90102C0660F771F8A95E2F7E9
S1130380CB018423089580EF890F883060F443B350
S113039021E030E0B90102C0660F771F8A95E2F7C9
S11303A0CB018423089588EE890F883060F440B32C
S11303B021E030E0B90102C0660F771F8A95E2F7A9
S11303C0CB018423089580E00895883000F56623E6
S11303D081F0613009F088C04AB321E030E0B9010E
S11303E002C0660F771F8A95E2F7CB01842B8ABB84
S11303F008954AB321E030E0B90102C0660F771FC7
S11304008A95E2F7CB01809584238ABB089598EFFF
S1130410980F983008F5662381F0613009F064C0C4
S113042047B321E030E0B90102C0660F771F9A9507
S1130430E2F7CB01842B87BB089547B3885021E0B2
S113044030E0B90102C0660F771F8A95E2F7CB014D
S11304508095842387BB089590EF980F983008F512
S1130460662381F0613009F03FC044B321E030E0FD
S1130470B90102C0660F771F9A95E2F7CB01842B6E
S113048084BB089544B3805121E030E0B90102C037
S1130490660F771F8A95E2F7CB018095842384BB8E
S11304A0089598EE980F9830F8F4662379F0613047
S11304B0D9F441B321E030E0B90102C0660F771FDF
S11304C09A95E2F7CB01842B81BB089541B38851FF
S11304D021E030E0B90102C0660F771F8A95E2F788
S11304E0CB018095842381BB0895CF93C82F60E00E
S11304F081E00E94140160E082E00E9414018FE90F
S11305009FE00197F1F700C0000061E083E00E94E2
S113051014018FE99FE00197F1F700C00000C4FBCC
S1130520662760F984E00E941401C5FB662760F920
S113053085E00E941401C6FB662760F986E00E94EC
S113054014016C2F661F6627661F87E00E94140142
S11305508FE99FE00197F1F700C0000060E083E0BD
S11305600E9414018FE99FE00197F1F700C0000099
S113057061E083E00E9414018FE99FE00197F1F7A5
S113058000C000006C2F617084E00E941401C1FB64
S1130590662760F985E00E941401C2FB662760F9B2
S11305A086E00E941401C3FB662760F987E00E947D
S11305B014018FE99FE00197F1F700C0000060E0AB
S11305C083E00E9414018FE99FE00197F1F700C0D6
S11305D00000CF91089561E081E00E94E50161E0AF
S11305E082E00E94E50161E083E00E94E50161E0B0
S11305F084E00E94E50161E085E00E94E50161E09C
S113060086E00E94E50161E087E00E94E50188E25E
S11306100E9475028CE00E94750281E00E947502BE
S11306200895CF93C82F61E081E00E94140160E037
S113063082E00E9414018FE99FE00197F1F700C066
S1130640000061E083E00E9414018FE99FE00197BC
S1130650F1F700C00000C4FB662760F984E00E9443
S11306601401C5FB662760F985E00E941401C6FBEE
S1130670662760F986E00E9414016C2F661F6627C6
S1130680661F87E00E9414018FE99FE00197F1F74C
S113069000C0000060E083E00E9414018FE99FE045
S11306A00197F1F700C0000061E083E00E941401AB
S11306B08FE99FE00197F1F700C000006C2F617093
S11306C084E00E941401C1FB662760F985E00E9462
S11306D01401C2FB662760F986E00E941401C3FB83
S11306E0662760F987E00E9414018FE99FE0019773
S11306F0F1F700C0000060E083E00E9414018FE97C
S11307009FE00197F1F700C00000CF9108950F9387
S11307101F93CF93FC018081882359F08F01C0E09F
S11307200E941103CF5FF801EC0FF11D808181114C
S1130730F7CFCF911F910F91089581E00E94750228
S11307400895813019F0823021F006C080E8860FC8
S113075004C080EC860F01C080E80E9475020895F1
S1130760CF93DF93EC01862F642F0E94A103CE0167
S11307700E948703DF91CF910895CF93DF93CDB784
S1130780DEB760970FB6F894DEBF0FBECDBFDC01B5
S1130790CB014AE0BE016F5F7F4F0E94A904CE01E6
S11307A001960E94870360960FB6F894DEBF0FBED1
S11307B0CDBFDF91CF910895DF92EF92FF920F9317
S11307C01F93CF93DF937C01142FD22E862F880F93
S11307D0880F880F80640E947502E70188E0E80EA4
S11307E0F11C89910E9411038FE39CE90197F1F7B1
S11307F000C00000CE15DF05A1F780E80E94750255
S1130800602F8D2D0E94A103812F0E941103DF917F
S1130810CF911F910F91FF90EF90DF9008950E9468
S1130820490042E062E08BE790E00E94B0036AE096
S113083082E00E9454002FEF87EA91E62150804025
S11308409040E1F700C000000E949D0342E062E096
S113085084E890E00E94B0032FEF87EA91E62150EC
S113086080409040E1F700C000000E949D0361E9D0
S113087070E082EA90E00E94A60084E10E94CC002D
S113088061EB70E080EC90E00E94A6008AE00E9498
S1130890CC0060ED70E08FED90E00E94A60084E152
S11308A00E94CC006EEE70E08EEF90E00E94A600F5
S11308B084E10E94CC006EE071E08BE191E00E9443
S11308C0A60084E10E94CC000E949D0340E061E008
S11308D08AE291E00E94B0036091550170E080E0EB
S11308E090E00E94BD0340E062E083E391E00E9457
S11308F0B0036091540170E080E090E00E94BD0379
S11309002FEF87EA91E6215080409040E1F700C044
S113091000009091550180915401891768F40E9458
S11309209D0341E061E08AE391E00E94B00366E048
S113093082E00E9454000CC00E949D0342E061E0EA
S113094089E491E00E94B00366E082E00E947D00A9
S1130950FFCFBB274A3031F4992322F4BDE29095AE
S113096081959F4F0C94B504BB27FB015527AA27FB
S1130970880F991FAA1FA41710F0A41B8395505128
S1130980B9F7A05DAA3308F0A95DA193009779F7A0
S1130990B111B1931192CB010C94CE04DC01FC0192
S11309A0672F71917723E1F7329704C07C916D939F
S11309B070836291AE17BF07C8F30895F894FFCF10
S11309C0302D79657300312D6E6F00636F7272651F
S11309D06374200077726F6E67200077656C636FB5
S11309E06D6520006C6574277320737461727420C4
S11309F00061726520796F75206571797074696F13
S1130A006E006669727374207175657374696F6EB4
S1130A10006176656C6162732069732031737400C0
S1130A207365636F6E64207175657374696F6E00AE
S1130A307377206973207468652062657374007429
S1130A4068697264207175657374696F6E00617290
S1130A50722061726520706F696E74657200666FD2
S1130A6075727468207175657374696F6E00737440
S1130A7072206C696B6520617272006669667468C5
S1130A80207175657374696F6E00636F727265634C
S1130A90743A0077726F6E673A00636F6E677261C3
S1130AA074756C6174696F6E0068617264206C7532
S1070AB0636B000070
S9030000FC
