S01400006D6F746F725F6472697665722E73726563F4
S11300000C942A000C9434000C9434000C943400A6
S11300100C9434000C9434000C9434000C9434008C
S11300200C9434000C9434000C9434000C9434007C
S11300300C9434000C9434000C9434000C9434006C
S11300400C9434000C9434000C9434000C9434005C
S11300500C94340011241FBECFE5D8E0DEBFCDBF21
S11300600E9456010C9467020C940000883000F53D
S1130070662381F0613009F088C04BB321E030E0A1
S1130080B90102C0660F771F8A95E2F7CB01842B72
S11300908BBB08954BB321E030E0B90102C0660F79
S11300A0771F8A95E2F7CB01809584238BBB089553
S11300B098EF980F983008F5662381F0613009F0C5
S11300C064C048B321E030E0B90102C0660F771F75
S11300D09A95E2F7CB01842B88BB089548B38850E6
S11300E021E030E0B90102C0660F771F8A95E2F77C
S11300F0CB018095842388BB089590EF980F9830A6
S113010008F5662381F0613009F03FC045B321E072
S113011030E0B90102C0660F771F9A95E2F7CB0170
S1130120842B85BB089545B3805121E030E0B901AB
S113013002C0660F771F8A95E2F7CB01809584236E
S113014085BB089598EE980F9830F8F4662379F0FB
S11301506130D9F442B321E030E0B90102C0660F46
S1130160771F9A95E2F7CB01842B82BB089542B3A3
S1130170885121E030E0B90102C0660F771F8A95EB
S1130180E2F7CB018095842382BB0895883000F583
S1130190662381F0613009F088C04AB321E030E081
S11301A0B90102C0660F771F8A95E2F7CB01842B51
S11301B08ABB08954AB321E030E0B90102C0660F5A
S11301C0771F8A95E2F7CB01809584238ABB089533
S11301D098EF980F983008F5662381F0613009F0A4
S11301E064C047B321E030E0B90102C0660F771F55
S11301F09A95E2F7CB01842B87BB089547B38850C7
S113020021E030E0B90102C0660F771F8A95E2F75A
S1130210CB018095842387BB089590EF980F983085
S113022008F5662381F0613009F03FC044B321E052
S113023030E0B90102C0660F771F9A95E2F7CB014F
S1130240842B84BB089544B3805121E030E0B9018C
S113025002C0660F771F8A95E2F7CB01809584234D
S113026084BB089598EE980F9830F8F4662379F0DB
S11302706130D9F441B321E030E0B90102C0660F26
S1130280771F9A95E2F7CB01842B81BB089541B384
S1130290885121E030E0B90102C0660F771F8A95CA
S11302A0E2F7CB018095842381BB089568E273E271
S11302B088E290E00E94C70161E081E00E94610150
S11302C0FFCFCF93C82F613019F0623081F15DC048
S11302D061E08AE10E94C60061E08BE10E94C600F1
S11302E0C13019F0C23091F050C060E08AE10E9440
S11302F0360060E08BE10E94360061E08AE10E94F2
S1130300360060E08BE10E9436003FC060E08AE185
S11303100E94360060E08BE10E94360060E08AE1D2
S11303200E94360061E08BE10E9436002EC061E03D
S11303308EE10E94C60061E08FE10E94C600C130D8
S113034019F0C23091F021C060E08EE10E943600C5
S113035060E08FE10E94360061E08EE10E94360089
S113036060E08FE10E94360010C060E08EE10E94E0
S1130370360060E08FE10E94360060E08EE10E946A
S1130380360061E08FE10E943600CF910895CF924C
S1130390DF92EF92FF92CF93DF93EC019B01220F48
S11303A0331F40E050E060E074E284EF90E00E948C
S11303B0170269017A011DBC1CBCC90101968C9FFE
S11303C090018D9F300D9C9F300D112436952795FB
S11303D036952795ABE7B4E10E943602969587954A
S11303E09601281B390B3BBD2ABD39BD28BDD7BC9E
S11303F0C6BC8FB580688FBD8FB580628FBD8FB549
S113040082608FBD8EB580618EBD8EB581608EBDDC
S113041061E08CE10E94C60061E08DE10E94C600AB
S1130420DF91CF91FF90EF90DF90CF900895052E4C
S113043097FB1EF400940E942E0257FD07D00E94E1
S1130440450207FC03D04EF40C942E0250954095BF
S1130450309521953F4F4F4F5F4F0895909580956C
S1130460709561957F4F8F4F9F4F0895A29FB00164
S1130470B39FC001A39F700D811D1124911DB29FD4
S1130480700D811D1124911D0895A1E21A2EAA1B3D
S1130490BB1BFD010DC0AA1FBB1FEE1FFF1FA21730
S11304A0B307E407F50720F0A21BB30BE40BF50B2D
S11304B0661F771F881F991F1A9469F760957095B6
S11304C0809590959B01AC01BD01CF010895F894EE
S10504D0FFCF58
S9030000FC
