S0130000556172745F6472697665722E737265638A
S11300000C942A000C9434000C9434000C943400A6
S11300100C9434000C9434000C9434000C9434008C
S11300200C9434000C9434000C9434000C9434007C
S11300300C9434000C9434000C9434000C9434006C
S11300400C9434000C9434000C9434000C9434005C
S11300500C94340011241FBECFE5D8E0DEBFCDBF21
S11300600E9436000C9453000C9400000E9440003F
S11300700E944F00882319F083E60E944B00FFCFB3
S113008080B5866880BD599A8AB188618AB910BCE6
S11300908FEC89B908955D9BFECF8CB908955F9B61
S10D00A0FECF8CB10895F894FFCF51
S9030000FC
